{
  "contractName": "TestStorage",
  "abi": [
    {
      "anonymous": false,
      "inputs": [
        {
          "components": [
            {
              "internalType": "string",
              "name": "serial",
              "type": "string"
            },
            {
              "internalType": "string",
              "name": "name",
              "type": "string"
            },
            {
              "internalType": "uint32",
              "name": "age",
              "type": "uint32"
            },
            {
              "internalType": "string",
              "name": "phone_number",
              "type": "string"
            }
          ],
          "indexed": false,
          "internalType": "struct TestStorage.UserInfo",
          "name": "userinfo",
          "type": "tuple"
        }
      ],
      "name": "RegUserInfo",
      "type": "event"
    },
    {
      "inputs": [],
      "name": "pingpong",
      "outputs": [
        {
          "internalType": "string",
          "name": "",
          "type": "string"
        }
      ],
      "stateMutability": "pure",
      "type": "function",
      "constant": true
    },
    {
      "inputs": [
        {
          "internalType": "string",
          "name": "_serial",
          "type": "string"
        }
      ],
      "name": "getUserInfo",
      "outputs": [
        {
          "components": [
            {
              "internalType": "string",
              "name": "serial",
              "type": "string"
            },
            {
              "internalType": "string",
              "name": "name",
              "type": "string"
            },
            {
              "internalType": "uint32",
              "name": "age",
              "type": "uint32"
            },
            {
              "internalType": "string",
              "name": "phone_number",
              "type": "string"
            }
          ],
          "internalType": "struct TestStorage.UserInfo",
          "name": "",
          "type": "tuple"
        }
      ],
      "stateMutability": "view",
      "type": "function",
      "constant": true
    },
    {
      "inputs": [
        {
          "internalType": "string",
          "name": "_serial",
          "type": "string"
        },
        {
          "internalType": "string",
          "name": "_name",
          "type": "string"
        },
        {
          "internalType": "uint32",
          "name": "_age",
          "type": "uint32"
        },
        {
          "internalType": "string",
          "name": "_phone_number",
          "type": "string"
        }
      ],
      "name": "setUserInfo",
      "outputs": [],
      "stateMutability": "nonpayable",
      "type": "function"
    }
  ],
  "bytecode": "0x608060405234801561001057600080fd5b50610786806100206000396000f3fe608060405234801561001057600080fd5b50600436106100415760003560e01c806318efe53b1461004657806363fcdbb6146100645780637c9b7fdd14610079575b600080fd5b61004e610099565b60405161005b9190610644565b60405180910390f35b61007761007236600461055b565b6100d0565b005b61008c610087366004610520565b6101cd565b60405161005b919061065e565b60408051808201909152600b81527f48656c6c6f20576f726c64000000000000000000000000000000000000000000602082015290565b600060405180608001604052808681526020018581526020018463ffffffff1681526020018381525090508060008660405161010c9190610628565b908152602001604051809103902060008201518160000190805190602001906101369291906103d2565b50602082810151805161014f92600185019201906103d2565b50604082015160028201805463ffffffff191663ffffffff9092169190911790556060820151805161018b9160038401916020909101906103d2565b509050507f915d676d7ff190025396097d454e14efc346b676719a46b124c73e53d88e4eaa816040516101be919061065e565b60405180910390a15050505050565b6101d5610456565b600080836040516101e69190610628565b908152602001604051809103902060405180608001604052908160008201805461020f906106ff565b80601f016020809104026020016040519081016040528092919081815260200182805461023b906106ff565b80156102885780601f1061025d57610100808354040283529160200191610288565b820191906000526020600020905b81548152906001019060200180831161026b57829003601f168201915b505050505081526020016001820180546102a1906106ff565b80601f01602080910402602001604051908101604052809291908181526020018280546102cd906106ff565b801561031a5780601f106102ef5761010080835404028352916020019161031a565b820191906000526020600020905b8154815290600101906020018083116102fd57829003601f168201915b5050509183525050600282015463ffffffff166020820152600382018054604090920191610347906106ff565b80601f0160208091040260200160405190810160405280929190818152602001828054610373906106ff565b80156103c05780601f10610395576101008083540402835291602001916103c0565b820191906000526020600020905b8154815290600101906020018083116103a357829003601f168201915b50505091909252509195945050505050565b8280546103de906106ff565b90600052602060002090601f0160209004810192826104005760008555610446565b82601f1061041957805160ff1916838001178555610446565b82800160010185558215610446579182015b8281111561044657825182559160200191906001019061042b565b50610452929150610484565b5090565b60405180608001604052806060815260200160608152602001600063ffffffff168152602001606081525090565b5b808211156104525760008155600101610485565b600082601f8301126104a9578081fd5b813567ffffffffffffffff808211156104c4576104c461073a565b604051601f8301601f19908116603f011681019082821181831017156104ec576104ec61073a565b81604052838152866020858801011115610504578485fd5b8360208701602083013792830160200193909352509392505050565b600060208284031215610531578081fd5b813567ffffffffffffffff811115610547578182fd5b61055384828501610499565b949350505050565b60008060008060808587031215610570578283fd5b843567ffffffffffffffff80821115610587578485fd5b61059388838901610499565b955060208701359150808211156105a8578485fd5b6105b488838901610499565b94506040870135915063ffffffff821682146105ce578384fd5b909250606086013590808211156105e3578283fd5b506105f087828801610499565b91505092959194509250565b600081518084526106148160208601602086016106cf565b601f01601f19169290920160200192915050565b6000825161063a8184602087016106cf565b9190910192915050565b60006020825261065760208301846105fc565b9392505050565b60006020825282516080602084015261067a60a08401826105fc565b90506020840151601f198085840301604086015261069883836105fc565b925063ffffffff60408701511660608601526060860151915080858403016080860152506106c682826105fc565b95945050505050565b60005b838110156106ea5781810151838201526020016106d2565b838111156106f9576000848401525b50505050565b60028104600182168061071357607f821691505b6020821081141561073457634e487b7160e01b600052602260045260246000fd5b50919050565b634e487b7160e01b600052604160045260246000fdfea264697066735822122082c082a3e6d9aab32fc501af46b521f94413c960d9b62b711045768db0f44e0b64736f6c63430008010033",
  "immutableReferences": {},
  "source": "//SPDX-License-Identifier: MIT\n// SPDX  0.68  ,     \npragma solidity ^0.8.1;\n\ncontract TestStorage{\n    struct UserInfo {\n        string serial;\n        string name;\n        uint32 age;\n        string phone_number;\n    }\n\n    mapping (string => UserInfo) private userInfoList;\n\n    event RegUserInfo(UserInfo userinfo);\n\n    function pingpong() public pure returns (string memory){\n        return \"Hello World\";\n    }\n\n    function getUserInfo(string memory _serial) public view returns (UserInfo memory){\n        UserInfo memory userInfo = userInfoList[_serial];\n        \n        return userInfo;\n    }\n\n    function setUserInfo(string memory _serial, string memory _name, uint32 _age, string memory _phone_number) public{\n        UserInfo memory userinfo = UserInfo(_serial, _name, _age, _phone_number);\n        userInfoList[_serial] = userinfo;\n\n        emit RegUserInfo(userinfo);\n    }\n}",
  "sourcePath": "/Users/hoya/Develop/individual/blog/test-contract/contracts/Test.sol",
  "compiler": {
    "name": "solc",
    "version": "0.8.1+commit.df193b15.Emscripten.clang"
  },
  "schemaVersion": "3.4.11",
  "updatedAt": "2022-12-14T09:51:52.671Z",
  "networkType": "ethereum",
  "devdoc": {
    "kind": "dev",
    "methods": {},
    "version": 1
  },
  "userdoc": {
    "kind": "user",
    "methods": {},
    "version": 1
  }
}